:10016D000108FE010900100A30787C3E3E7C783093
:08017D0010101010105438108E
:10000300E4F51AF51B75087FE4F51CE4F51DAF084C
:1000130012012E120121D28000C28000E508C31311
:100023004480F508051DE51DC3940440E1051CE566
:100033001CC3940240D5051BE51B7002051AC3942B
:10004300E8E51A940340BEE4F51AF51BC3E51B94D7
:10005300E8E51A940350A975087F751C02E4F51DA1
:10006300AF0812012E120121D28000C28000E508E0
:10007300C3134480F508051DE51DC3940440E10541
:100083001CE51CC3940440D5051BE51B70BE051A73
:0200930080BA31
:0D012100E51C25E025E0240A251DF8E6FF79
:10012E00C28100C28000E4FEEF30E004D282800281
:0E013E00C282D281C281EFC313FF0EBE08EA57
:01014C002290
:10014D00E4FDFCC3ED9FEC9E5015E4FBFA0BBB00E8
:0F015D00010AEB647B4A70F50DBD00010C80E4D4
:01016C002270
:0300000002009566
:0C009500787FE4F6D8FD75811D0200DCC8
:1000A100020003E493A3F8E493A34003F68001F272
:1000B10008DFF48029E493A3F85407240CC8C33360
:1000C100C4540F4420C8834004F456800146F6DF2F
:1000D100E4800B010204081020408090016DE47E51
:1000E100019360BCA3FF543F30E509541FFEE49324
:1000F100A360010ECF54C025E060A840B8E493A3EB
:10010100FAE493A3F8E493A3C8C582C8CAC583CA15
:10011100F0A3C8C582C8CAC583CADFE9DEE780BECD
:010185000079
:00000001FF
