:100153000108FE010900100A00001C1C1C1C1C1CC9
:080163001C1C7F3E1C0800007B
:10008F0075087FE4F51AE4F51B7FFF120114E4FFF6
:10009F00120114AF08120114120107D28000C2809E
:1000AF0000E508C3134480F508051BE51BC3940442
:1000BF0040D7051AE51AC3940240CB75087F751A0D
:1000CF0002E51AC3940450B8E4F51BAF08120114EB
:1000DF001201077FFF120114E4FF120114D28000F6
:1000EF00C28000E508C3134480F508051BE51BC358
:0800FF00940440D7051A80C9E2
:0D010700E51A25E025E0240A251BF8E6FF97
:10011400C28100C28000E4FEEF30E004D28280029B
:0E012400C282D281C281EFC313FF0EBE08EA71
:0101320022AA
:10013300E4FDFCC3ED9FEC9E5015E4FBFA0BBB0002
:0F014300010AEB647B4A70F50DBD00010C80E4EE
:01015200228A
:03000000020003F8
:0C000300787FE4F6D8FD75811B02004AEE
:10000F0002008FE493A3F8E493A34003F68001F278
:10001F0008DFF48029E493A3F85407240CC8C333F2
:10002F00C4540F4420C8834004F456800146F6DFC1
:10003F00E4800B0102040810204080900153E47EFD
:10004F00019360BCA3FF543F30E509541FFEE493B6
:10005F00A360010ECF54C025E060A840B8E493A37D
:10006F00FAE493A3F8E493A3C8C582C8CAC583CAA8
:10007F00F0A3C8C582C8CAC583CADFE9DEE780BE60
:01016B000093
:00000001FF
