:1000E1000108FE010900180A0000000000000000DC
:1000F1001038541010101010000000000000000013
:10008F00E4F524E4F522F52375087FE4F525AF08A0
:10009F00120122E5242525240AF8E6FF120122D2B7
:1000AF008000C28000E508C3134480F5080525E5EC
:1000BF0025C3941040D80523E52370020522C3946D
:1000CF0032E522940040C10524E524C3941040B3C7
:0200DF0080AEF1
:10012200C28100C28000E4FEEF30E004D28280028D
:0E013200C282D281C281EFC313FF0EBE08EA63
:01014000229C
:10010200E4FDFCC3ED9FEC9E5015E4FBFA0BBB0033
:0F011200010AEB647B4A70F50DBD00010C80E41F
:0101210022BB
:03000000020003F8
:0C000300787FE4F6D8FD75812502004AE4
:10000F0002008FE493A3F8E493A34003F68001F278
:10001F0008DFF48029E493A3F85407240CC8C333F2
:10002F00C4540F4420C8834004F456800146F6DFC1
:10003F00E4800B01020408102040809000E1E47E70
:10004F00019360BCA3FF543F30E509541FFEE493B6
:10005F00A360010ECF54C025E060A840B8E493A37D
:10006F00FAE493A3F8E493A3C8C582C8CAC583CAA8
:10007F00F0A3C8C582C8CAC583CADFE9DEE780BE60
:0101010000FD
:00000001FF
